{
  "contractName": "SocialNetwork",
  "abi": [
    {
      "constant": true,
      "inputs": [],
      "name": "name",
      "outputs": [
        {
          "name": "",
          "type": "string"
        }
      ],
      "payable": false,
      "stateMutability": "view",
      "type": "function"
    },
    {
      "constant": true,
      "inputs": [
        {
          "name": "",
          "type": "uint256"
        }
      ],
      "name": "posts",
      "outputs": [
        {
          "name": "id",
          "type": "uint256"
        },
        {
          "name": "content",
          "type": "string"
        },
        {
          "name": "tipAmount",
          "type": "uint256"
        },
        {
          "name": "author",
          "type": "address"
        }
      ],
      "payable": false,
      "stateMutability": "view",
      "type": "function"
    },
    {
      "constant": true,
      "inputs": [],
      "name": "PostCount",
      "outputs": [
        {
          "name": "",
          "type": "uint256"
        }
      ],
      "payable": false,
      "stateMutability": "view",
      "type": "function"
    },
    {
      "inputs": [],
      "payable": false,
      "stateMutability": "nonpayable",
      "type": "constructor"
    },
    {
      "anonymous": false,
      "inputs": [
        {
          "indexed": false,
          "name": "id",
          "type": "uint256"
        },
        {
          "indexed": false,
          "name": "content",
          "type": "string"
        },
        {
          "indexed": false,
          "name": "tipAmount",
          "type": "uint256"
        },
        {
          "indexed": false,
          "name": "author",
          "type": "address"
        }
      ],
      "name": "PostCreated",
      "type": "event"
    },
    {
      "constant": false,
      "inputs": [
        {
          "name": "_content",
          "type": "string"
        }
      ],
      "name": "createPost",
      "outputs": [],
      "payable": false,
      "stateMutability": "nonpayable",
      "type": "function"
    }
  ],
  "bytecode": "0x6080604052600060025534801561001557600080fd5b506040805190810160405280601581526020017f54686973206973206d7920666972737420706f7374000000000000000000000081525060009080519060200190610061929190610067565b5061010c565b828054600181600116156101000203166002900490600052602060002090601f016020900481019282601f106100a857805160ff19168380011785556100d6565b828001600101855582156100d6579182015b828111156100d55782518255916020019190600101906100ba565b5b5090506100e391906100e7565b5090565b61010991905b808211156101055760008160009055506001016100ed565b5090565b90565b6107788061011b6000396000f3fe608060405260043610610062576000357c0100000000000000000000000000000000000000000000000000000000900463ffffffff16806306fdde03146100675780630b1e7f83146100f7578063a2d1eceb146101ec578063c7303c6114610217575b600080fd5b34801561007357600080fd5b5061007c6102df565b6040518080602001828103825283818151815260200191508051906020019080838360005b838110156100bc5780820151818401526020810190506100a1565b50505050905090810190601f1680156100e95780820380516001836020036101000a031916815260200191505b509250505060405180910390f35b34801561010357600080fd5b506101306004803603602081101561011a57600080fd5b810190808035906020019092919050505061037d565b60405180858152602001806020018481526020018373ffffffffffffffffffffffffffffffffffffffff1673ffffffffffffffffffffffffffffffffffffffff168152602001828103825285818151815260200191508051906020019080838360005b838110156101ae578082015181840152602081019050610193565b50505050905090810190601f1680156101db5780820380516001836020036101000a031916815260200191505b509550505050505060405180910390f35b3480156101f857600080fd5b50610201610465565b6040518082815260200191505060405180910390f35b34801561022357600080fd5b506102dd6004803603602081101561023a57600080fd5b810190808035906020019064010000000081111561025757600080fd5b82018360208201111561026957600080fd5b8035906020019184600183028401116401000000008311171561028b57600080fd5b91908080601f016020809104026020016040519081016040528093929190818152602001838380828437600081840152601f19601f82011690508083019250505050505050919291929050505061046b565b005b60008054600181600116156101000203166002900480601f0160208091040260200160405190810160405280929190818152602001828054600181600116156101000203166002900480156103755780601f1061034a57610100808354040283529160200191610375565b820191906000526020600020905b81548152906001019060200180831161035857829003601f168201915b505050505081565b6001602052806000526040600020600091509050806000015490806001018054600181600116156101000203166002900480601f01602080910402602001604051908101604052809291908181526020018280546001816001161561010002031660029004801561042f5780601f106104045761010080835404028352916020019161042f565b820191906000526020600020905b81548152906001019060200180831161041257829003601f168201915b5050505050908060020154908060030160009054906101000a900473ffffffffffffffffffffffffffffffffffffffff16905084565b60025481565b600081511115156104e4576040517f08c379a00000000000000000000000000000000000000000000000000000000081526004018080602001828103825260178152602001807f436f6e74656e742063616e6e6f7420626520656d70747900000000000000000081525060200191505060405180910390fd5b6002600081548092919060010191905055506080604051908101604052806002548152602001828152602001600081526020013373ffffffffffffffffffffffffffffffffffffffff1681525060016000600254815260200190815260200160002060008201518160000155602082015181600101908051906020019061056c9291906106a7565b506040820151816002015560608201518160030160006101000a81548173ffffffffffffffffffffffffffffffffffffffff021916908373ffffffffffffffffffffffffffffffffffffffff1602179055509050507fc66336337a24e513f909b3b25119854dba8385d51307dbc7d31d1b2805e19c7e6002548260003360405180858152602001806020018481526020018373ffffffffffffffffffffffffffffffffffffffff1673ffffffffffffffffffffffffffffffffffffffff168152602001828103825285818151815260200191508051906020019080838360005b8381101561066757808201518184015260208101905061064c565b50505050905090810190601f1680156106945780820380516001836020036101000a031916815260200191505b509550505050505060405180910390a150565b828054600181600116156101000203166002900490600052602060002090601f016020900481019282601f106106e857805160ff1916838001178555610716565b82800160010185558215610716579182015b828111156107155782518255916020019190600101906106fa565b5b5090506107239190610727565b5090565b61074991905b8082111561074557600081600090555060010161072d565b5090565b9056fea165627a7a72305820121b9dd9669d7b1168f3e1d4b3be64ab4d327398c7ad31d7bf680b112dc460d50029",
  "source": "pragma solidity ^0.5.0;\n\ncontract SocialNetwork{\n\tstring public name;\n\tmapping(uint => Post) public posts;\n\tuint public PostCount = 0;\n\n\tstruct Post{\n\t\tuint id;\n\t\tstring content;\n\t\tuint tipAmount;\n\t\taddress author;\n\t}\n\n\tevent PostCreated(\n\t\tuint id,\n\t\tstring content,\n\t\tuint tipAmount,\n\t\taddress author\n\t);\n\n\tconstructor() public{\n\t\tname = \"This is my first post\";\n\t}\n\n\tfunction createPost(string memory _content) public{\n//Require valid content\n\trequire(bytes(_content).length > 0, \"Content cannot be empty\");\n\n\t//increment the post count\n\t\tPostCount++;\n\t//Create the post\n\t\tposts[PostCount] = Post(PostCount, _content, 0, msg.sender);\n\t//Trigger Event\n\t\temit PostCreated(PostCount, _content, 0, msg.sender);\n\t}\n}",
  "sourcePath": "/Users/shivambhati/Documents/GitHub/GanasheDebug/social-network/src/contracts/SocialNetwork.sol",
  "compiler": {
    "name": "solc",
    "version": "0.5.0+commit.1d4f565a.Emscripten.clang"
  },
  "schemaVersion": "3.0.2",
  "updatedAt": "2024-08-01T19:19:28.605Z",
  "devdoc": {
    "methods": {}
  },
  "userdoc": {
    "methods": {}
  }
}